:100000000C9462000C948A000C948A000C948A0070
:100010000C948A000C948A000C948A000C948A0038
:100020000C948A000C948A000C948A000C948A0028
:100030000C948A000C9407040C948A000C948A0097
:100040000C94BD030C948A000C948B030C946503F0
:100050000C948A000C948A000C948A000C948A00F8
:100060000C948A000C948A000000000023002600F3
:10007000290000000008000201000003040700003E
:1000800000000000000000000000250028002B00F8
:1000900000000000240027002A00040404040404D3
:1000A0000404020202020202030303030303010227
:1000B00004081020408001020408102001020408F6
:1000C0001020760611241FBECFEFD8E0DEBFCDBFD3
:1000D00011E0A0E0B1E0E0E2F2E102C005900D9293
:1000E000AA32B107D9F721E0AAE2B1E001C01D921E
:1000F000A83EB207E1F710E0C2E6D0E004C02197C5
:10010000FE010E940809C136D107C9F70E942E04DA
:100110000C940E090C940000AF92BF92CF92DF9224
:10012000EF92FF920F931F93CF93DF936C017B01AC
:100130008B01040F151FEB015E01AE18BF08C0173D
:10014000D10759F06991D601ED91FC910190F081B0
:10015000E02DC6010995892B79F7C501DF91CF9173
:100160001F910F91FF90EF90DF90CF90BF90AF90D5
:100170000895FC01538D448D252F30E0842F90E0AD
:10018000821B930B541710F0CF9608950197089592
:10019000FC01918D828D981761F0A28DAE0FBF2F5B
:1001A000B11D5D968C91928D9F5F9F73928F90E0B1
:1001B00008958FEF9FEF0895FC01918D828D981720
:1001C00031F0828DE80FF11D858D90E008958FEF5D
:1001D0009FEF0895FC01918D228D892F90E0805C26
:1001E0009F4F821B91098F73992708958BE491E0AB
:1001F0000E94EA0021E0892B09F420E0822F089573
:1002000080E090E0892B29F00E94F60081110C9487
:1002100000000895FC01A48DA80FB92FB11DA35AA9
:10022000BF4F2C91848D90E001968F739927848F16
:10023000A689B7892C93A089B1898C918370806439
:100240008C93938D848D981306C00288F389E02DDA
:1002500080818F7D80830895EF92FF920F931F938B
:10026000CF93DF93EC0181E0888F9B8D8C8D981369
:100270001AC0E889F989808185FF15C09FB7F89475
:10028000EE89FF896083E889F989808183708064C1
:1002900080839FBF81E090E0DF91CF911F910F910C
:1002A000FF90EF900895F62E0B8D10E00F5F1F4F1B
:1002B0000F731127E02E8C8D8E110CC00FB607FC2A
:1002C000FACFE889F989808185FFF5CFCE010E94B8
:1002D0000A01F1CFEB8DEC0FFD2FF11DE35AFF4F1B
:1002E000F0829FB7F8940B8FEA89FB898081806246
:1002F000CFCFCF93DF93EC01888D8823B9F0AA8903
:10030000BB89E889F9898C9185FD03C0808186FDD0
:100310000DC00FB607FCF7CF8C9185FFF2CF80811F
:1003200085FFEDCFCE010E940A01E9CFDF91CF9189
:10033000089590E0FC01EE58FF4F2491FC01E25536
:10034000FF4F3491FC01E656FF4FE491EE23C1F1DB
:10035000222339F02330E9F090F4213001F12230EA
:1003600011F1F0E0EE0FFF1FE859FF4FA591B49196
:10037000EC91E32381E090E029F580E008952730B7
:10038000A9F02830C9F0243061F7809180008F7D7A
:1003900003C0809180008F7780938000E2CF84B586
:1003A0008F7784BDDECF84B58F7DFBCF8091B00089
:1003B0008F778093B000D5CF8091B0008F7DF9CF3B
:1003C00080E090E008953FB7F89480912B019091E0
:1003D0002C01A0912D01B0912E0126B5A89B05C03E
:1003E0002F3F19F00196A11DB11D3FBFBA2FA92FB4
:1003F000982F8827BC01CD01620F711D811D911DB1
:1004000042E0660F771F881F991F4A95D1F708951C
:100410008091470190914801019749F480914101F1
:100420009091420101969093420180934101089579
:10043000FC0101900020E9F73197AF01481B590BEF
:10044000BC018BE491E00C948C008F929F92AF9250
:10045000BF920F931F93CF93DF93CDB7DEB7A197D2
:100460000FB6F894DEBF0FBECDBF19A2423008F41C
:100470004AE08E010F5D1F4F842E912CB12CA12CD0
:10048000A50194010E94E608E62FB901CA01EA30ED
:10049000F4F4E05DD801EE938D01232B242B252B62
:1004A00079F790E080E0109719F0CD010E941802D2
:1004B000A1960FB6F894DEBF0FBECDBFDF91CF91EE
:1004C0001F910F91BF90AF909F908F900895E95C1E
:1004D000E1CF4F925F926F927F928F929F92AF92F5
:1004E000BF92CF92DF92EF92FF926B017C01AC0141
:1004F0009B010E94E1088823C1F086E191E00E94FF
:1005000018027C0182E291E00E9418028E0D9F1D6C
:10051000FF90EF90DF90CF90BF90AF909F908F9023
:100520007F906F905F904F90089546015701E89437
:10053000B7F82FEF3FEF4FE75FE7C501B4010E9427
:10054000E10881110DC02FEF3FEF4FE75FE7C501D5
:10055000B4010E94100718161CF48AE191E0CFCF75
:100560002FEF3FEF4FE75FE4C701B6010E946F082E
:1005700018161CF48EE191E0C2CF2FEF3FEF4FE74A
:100580005FECC701B6010E94100787FDF3CF20E0A2
:1005900030E0A901C701B6010E941007B12CA12CBF
:1005A00087FF0AC06DE28BE491E00E942C015C01A0
:1005B000F7FAF094F7F8F0942AE037ED43EA5BE3BA
:1005C000C701B6010E94A4062B013C010E948E07C0
:1005D0006B017C010E94BD079B01AC01C301B2010C
:1005E0000E94A3062B013C014AE0C701B6010E940C
:1005F00025027C01EA0CFB1C6EE28BE491E00E9478
:100600002C01E80EF91E20E030E040E251E4C30185
:10061000B2010E9474082B013C010E948E074B011D
:10062000B12CA12C4AE0C501B4010E942502E80EBC
:10063000F91EC501B4010E94BD079B01AC01C301B5
:10064000B2010E94A30620E030E040E251E40E94A3
:1006500074080E948E0790E080E04AE00E94250224
:10066000E80EF91E4FCFCF92DF92EF92FF92CF9319
:10067000DF936C01990FEE08FF08F7FE1FC06DE2D3
:100680008BE491E00E942C01EC0166277727CB01D7
:100690006C197D098E099F094AE00E942502C80F46
:1006A000D91F82E291E00E9418028C0F9D1FDF91FA
:1006B000CF91FF90EF90DF90CF9008954AE0C7016F
:1006C000B6010E942502EC01ECCF1F920F920FB6EB
:1006D0000F9211242F933F934F935F936F937F93C8
:1006E0008F939F93AF93BF93EF93FF938BE491E02E
:1006F0000E940A01FF91EF91BF91AF919F918F915D
:100700007F916F915F914F913F912F910F900FBE0D
:100710000F901F9018951F920F920FB60F921124F1
:100720002F938F939F93EF93FF93E0915B01F09151
:100730005C018081E0916101F091620182FD1BC04A
:100740009081809164018F5F8F7320916501821782
:1007500041F0E0916401F0E0E55BFE4F958F8093FE
:100760006401FF91EF919F918F912F910F900FBE98
:100770000F901F9018958081F4CF1F920F920FB6A3
:100780000F9211242F933F938F939F93AF93BF9317
:100790008091310190913201A0913301B0913401E7
:1007A00030912A0123E0230F2D3758F50196A11D22
:1007B000B11D20932A018093310190933201A093BF
:1007C0003301B093340180912B0190912C01A091C1
:1007D0002D01B0912E010196A11DB11D80932B0119
:1007E00090932C01A0932D01B0932E01BF91AF9156
:1007F0009F918F913F912F910F900FBE0F901F905F
:10080000189526E8230F0296A11DB11DD2CF1F9285
:100810000F920FB60F9211242F933F934F935F9334
:100820006F937F938F939F93AF93BF93EF93FF93B8
:10083000E0912F01F09130010995FF91EF91BF9167
:10084000AF919F918F917F916F915F914F913F9168
:100850002F910F900FBE0F901F901895789484B52C
:10086000826084BD84B5816084BD85B5826085BDAC
:1008700085B5816085BD80916E00816080936E003A
:10088000109281008091810082608093810080912C
:1008900081008160809381008091800081608093DD
:1008A00080008091B10084608093B1008091B0009D
:1008B00081608093B00080917A00846080937A0098
:1008C00080917A00826080937A0080917A008160C2
:1008D00080937A0080917A00806880937A001092E9
:1008E000C100E0915B01F0915C0182E08083E091C6
:1008F0005701F09158011082E0915901F0915A018D
:100900008FEC808310926301E0915F01F0916001B0
:1009100086E08083E0915D01F0915E0180818061DD
:100920008083E0915D01F0915E0180818860808329
:10093000E0915D01F0915E01808180688083E091AB
:100940005D01F0915E0180818F7D8083E2EBF0E0BC
:100950002491EEE9F0E084918823C1F090E0880FC3
:10096000991FFC01E057FF4FC591D491FC01EA5754
:10097000FF4FA591B4919FB7F8948881E22FE0953D
:100980008E2388838C91E823EC939FBFE0EBF0E00B
:100990002491ECE9F0E084918823C1F090E0880F85
:1009A000991FFC01E057FF4FC591D491FC01EA5714
:1009B000FF4FA591B4919FB7F8943881822F80950D
:1009C00083238883EC91E22BEC939FBF80E180939B
:1009D00081001092800088EA91E6909387008093CE
:1009E000860084E18093810088E092E0909330015A
:1009F00080932F0181E080936F0090E4292E2CE0FA
:100A0000322E38EE832E33E0932EA12CB12C00E051
:100A100010E0C1E0D0E020927C0080917A008064F8
:100A200080937A0080917A0086FDFCCF90917800C7
:100A30008091790089279827892790934A0180938C
:100A400049010E94330382E00E949901892B21F41D
:100A5000D0934801C093470180914701909148018C
:100A6000019709F048C084E00E9499018130910506
:100A7000A1F42091450130914601232B71F420917E
:100A80004301309144012F5F3F4F30934401209345
:100A90004301909346018093450184E00E949901AF
:100AA000892B51F48091450190914601019721F4E1
:100AB00010924601109245018091410190914201AE
:100AC0000A9709F00AC18091430190914401109264
:100AD0004801109247019C01329EC001339E900D47
:100AE00011240E943303109244011092430110928A
:100AF00042011092410160913F0170914001072E27
:100B0000000C880B990B0E94BF076B017C0120E051
:100B100030E040E950E40E9474080E948707072EE5
:100B2000000C880B990B0E94BF0720E030E04AE7D9
:100B300054E40E94150720E030E041E655E40E94AD
:100B400074082B013C0160913D0170913E01072E1C
:100B5000000C880B990B0E94BF079B01AC01C301DD
:100B6000B2010E9415076093390170933A01809396
:100B70003B0190933C0120E030E040E451E4C701A8
:100B8000B6010E941507609335017093360180937A
:100B90003701909338012FB7F8946091310170912B
:100BA000320180913301909134012FBFA50194014E
:100BB0000E94E608690130933E0120933D01809137
:100BC0003F019091400101969093400180933F0135
:100BD0006091490170914A01072E000C880B990B16
:100BE0000E94BF072AE038E240EA5BE30E947408F3
:100BF0002B013C01B601DD0C880B990B0E94BF074D
:100C00002AE037ED43E25CE30E9474089B01AC01EB
:100C100060910001709101018091020190910301A6
:100C20000E94A3066093000170930101809302016A
:100C3000909303016091390170913A0180913B01D9
:100C400090913C010E9469026091350170913601DA
:100C500080913701909138010E946902C301B2016D
:100C60000E9469026091000170910101809102016E
:100C7000909103010E9469020E94E3012B013C0153
:100C800084EFC82EDD24D394E12CF12C0E94E301E3
:100C90006419750986099709683E734081059105B5
:100CA000A8F331E0C31AD108E108F10888EE480E34
:100CB00083E0581E611C711CC114D104E104F104CD
:100CC00029F70115110509F4A6CE0E94F600882324
:100CD00009F4A1CE0E9400009ECE85E291E00E9420
:100CE000180282E291E00E94180205CFEBE4F1E0E5
:100CF0001382128288EE93E0A0E0B0E084839583B3
:100D0000A683B78388E091E09183808385EC90E0AF
:100D10009587848784EC90E09787868780EC90E0C5
:100D2000918B808B81EC90E0938B828B82EC90E0B6
:100D3000958B848B86EC90E0978B868B118E128E30
:100D4000138E148E08955058BB27AA270E94BB0605
:100D50000C9435080E94270838F00E942E0820F0D5
:100D600039F49F3F19F426F40C9424080EF4E0950E
:100D7000E7FB0C941E08E92F0E94460858F3BA17A7
:100D8000620773078407950720F079F4A6F50C94A1
:100D900068080EF4E0950B2EBA2FA02D0B01B901B7
:100DA00090010C01CA01A0011124FF27591B99F0E1
:100DB000593F50F4503E68F11A16F040A22F232FED
:100DC000342F4427585FF3CF469537952795A7953D
:100DD000F0405395C9F77EF41F16BA0B620B730BE4
:100DE000840BBAF09150A1F0FF0FBB1F661F771F55
:100DF000881FC2F70EC0BA0F621F731F841F48F40A
:100E0000879577956795B795F7959E3F08F0B0CF92
:100E10009395880F08F09927EE0F97958795089579
:100E20000E94FA0708F481E008950E9429070C94B3
:100E300035080E942E0858F00E94270840F029F437
:100E40005F3F29F00C941E0851110C9469080C9412
:100E500024080E94460868F39923B1F3552391F3BF
:100E6000951B550BBB27AA2762177307840738F019
:100E70009F5F5F4F220F331F441FAA1FA9F335D076
:100E80000E2E3AF0E0E832D091505040E695001C2A
:100E9000CAF72BD0FE2F29D0660F771F881FBB1FE4
:100EA000261737074807AB07B0E809F0BB0B802DC2
:100EB000BF01FF2793585F4F3AF09E3F510578F0EE
:100EC0000C941E080C9469085F3FE4F3983ED4F339
:100ED000869577956795B795F7959F5FC9F7880FC2
:100EE000911D9695879597F90895E1E0660F771F14
:100EF000881FBB1F621773078407BA0720F0621BA5
:100F0000730B840BBA0BEE1F88F7E09508950E94CF
:100F10008E076894B1110C94690808950E944E08D8
:100F200088F09F5798F0B92F9927B751B0F0E1F0AA
:100F3000660F771F881F991F1AF0BA95C9F714C05A
:100F4000B13091F00E946808B1E008950C946808EF
:100F5000672F782F8827B85F39F0B93FCCF3869593
:100F600077956795B395D9F73EF4909580957095F0
:100F700061957F4F8F4F9F4F0895E89409C097FB6D
:100F80003EF490958095709561957F4F8F4F9F4F60
:100F90009923A9F0F92F96E9BB279395F6958795A4
:100FA00077956795B795F111F8CFFAF4BB0F11F467
:100FB00060FF1BC06F5F7F4F8F4F9F4F16C088230E
:100FC00011F096E911C0772321F09EE8872F762F44
:100FD00005C0662371F096E8862F70E060E02AF085
:100FE0009A95660F771F881FDAF7880F9695879571
:100FF00097F90895990F0008550FAA0BE0E8FEEF46
:1010000016161706E807F907C0F012161306E407CC
:10101000F50798F0621B730B840B950B39F40A26C5
:1010200061F0232B242B252B21F408950A2609F4A3
:10103000A140A6958FEF811D811D089597F99F67A7
:1010400080E870E060E008959FEF80EC0895002450
:101050000A941616170618060906089500240A941D
:1010600012161306140605060895092E0394000CA3
:1010700011F4882352F0BB0F40F4BF2B11F460FF32
:1010800004C06F5F7F4F8F4F9F4F089557FD90585B
:10109000440F551F59F05F3F71F04795880F97FB3C
:1010A000991F61F09F3F79F08795089512161306F6
:1010B0001406551FF2CF4695F1DF08C01616170625
:1010C0001806991FF1CF869571056105089408955A
:1010D000E894BB2766277727CB0197F908950E94EC
:1010E000FA0708F48FEF08950E9487080C943508DA
:1010F0000E94270838F00E942E0820F0952311F056
:101100000C941E080C94240811240C9469080E9465
:10111000460870F3959FC1F3950F50E0551F629FED
:10112000F001729FBB27F00DB11D639FAA27F00D40
:10113000B11DAA1F649F6627B00DA11D661F829F67
:101140002227B00DA11D621F739FB00DA11D621F4C
:10115000839FA00D611D221F749F3327A00D611D69
:10116000231F849F600D211D822F762F6A2F11244B
:101170009F5750409AF0F1F088234AF0EE0FFF1F7E
:10118000BB1F661F771F881F91505040A9F79E3FD5
:10119000510580F00C941E080C9469085F3FE4F33D
:1011A000983ED4F3869577956795B795F795E7952B
:1011B0009F5FC1F7FE2B880F911D9695879597F934
:1011C00008950E94FA07880B990B0895A1E21A2E40
:1011D000AA1BBB1BFD010DC0AA1FBB1FEE1FFF1FDB
:1011E000A217B307E407F50720F0A21BB30BE40B2B
:1011F000F50B661F771F881F991F1A9469F7609572
:101200007095809590959B01AC01BD01CF0108952B
:10121000EE0FFF1F0590F491E02D0994F894FFCF95
:101220000000C842000000002C018C00B9007901C8
:10123000EA00C800DC006E616E00696E66006F76C1
:0A12400066000D0A004E2F41000069
:00000001FF
