:020000040000FA
:100000000C945D000C9485000C9485000C94850084
:100010000C9485000C9485000C9485000C9485004C
:100020000C9485000C9485000C9485000C941004AD
:100030000C9485000C9485000C9485000C9485002C
:100040000C94C6030C9485000C9494030C946E03DA
:100050000C9485000C9485000C9485000C9485000C
:100060000C9485000C9485000000000024002700FB
:100070002A0000000000250028002B0004040404CE
:100080000404040402020202020203030303030342
:10009000010204081020408001020408102001021F
:1000A00004081020000000080002010000030407FB
:1000B00000000000000000009A0611241FBECFEFD0
:1000C000D8E0DEBFCDBF11E0A0E0B1E0E6E0FBE1AB
:1000D00002C005900D92A033B107D9F721E0A0E34B
:1000E000B1E001C01D92A53FB207E1F710E0CDE5F8
:1000F000D0E004C02197FE010E94560CCC35D107F8
:10010000C9F70E9439070C94810D0C940000AF923E
:10011000BF92CF92DF92EF92FF920F931F93CF93F4
:10012000DF936C017B018B01040F151FEB015E0156
:10013000AE18BF08C017D10759F06991D601ED91EB
:10014000FC910190F081E02DC6010995892B79F78A
:10015000C501DF91CF911F910F91FF90EF90DF903C
:10016000CF90BF90AF900895FC01538D448D252F03
:1001700030E0842F90E0821B930B541710F0CF9641
:10018000089501970895FC01918D828D981761F073
:10019000A28DAE0FBF2FB11D5D968C91928D9F5F8A
:1001A0009F73928F90E008958FEF9FEF0895FC0169
:1001B000918D828D981731F0828DE80FF11D858D1C
:1001C00090E008958FEF9FEF0895FC01918D228DAF
:1001D000892F90E0805C9F4F821B91098F73992734
:1001E000089585E491E00E94E50021E0892B09F45F
:1001F00020E0822F089580E090E0892B29F00E9472
:10020000F10081110C9400000895FC01A48DA80F49
:10021000B92FB11DA35ABF4F2C91848D90E0019648
:100220008F739927848FA689B7892C93A089B18968
:100230008C91837080648C93938D848D981306C009
:100240000288F389E02D80818F7D80830895EF926D
:10025000FF920F931F93CF93DF93EC0181E0888F80
:100260009B8D8C8D98131AC0E889F989808185FF50
:1002700015C09FB7F894EE89FF896083E889F989F2
:1002800080818370806480839FBF81E090E0DF91F4
:10029000CF911F910F91FF90EF900895F62E0B8D47
:1002A00010E00F5F1F4F0F731127E02E8C8D8E1102
:1002B0000CC00FB607FCFACFE889F989808185FF69
:1002C000F5CFCE010E940501F1CFEB8DEC0FFD2F94
:1002D000F11DE35AFF4FF0829FB7F8940B8FEA8924
:1002E000FB8980818062CFCFCF93DF93EC01888D33
:1002F0008823B9F0AA89BB89E889F9898C9185FDA1
:1003000003C0808186FD0DC00FB607FCF7CF8C912E
:1003100085FFF2CF808185FFEDCFCE010E940501E0
:10032000E9CFDF91CF91089590E0FC01EC55FF4FAC
:100330002491FC01E057FF4F3491FC01E458FF4F3A
:10034000E491EE23C9F0222339F0233001F1A8F41F
:10035000213019F1223029F1F0E0EE0FFF1FEE58A5
:10036000FF4FA591B4918FB7F894EC91611126C01D
:1003700030953E233C938FBF08952730A9F0283055
:10038000C9F0243049F7809180008F7D03C08091AF
:1003900080008F7780938000DFCF84B58F7784BD16
:1003A000DBCF84B58F7DFBCF8091B0008F778093BA
:1003B000B000D2CF8091B0008F7DF9CF3E2BDACF45
:1003C0008E3008F08E508770806480937C0080911E
:1003D0007A00806480937A0080917A0086FDFCCF59
:1003E000809178009091790008953FB7F8948091BA
:1003F000310190913201A0913301B091340126B5C1
:10040000A89B05C02F3F19F00196A11DB11D3FBF4C
:10041000BA2FA92F982F8827BC01CD01620F711D1B
:10042000811D911D42E0660F771F881F991F4A9515
:10043000D1F70895FC0101900020E9F73197AF0151
:10044000481B590BBC0185E491E00C9487008F9206
:100450009F92AF92BF920F931F93CF93DF93CDB72D
:10046000DEB7A1970FB6F894DEBF0FBECDBF19A2BD
:10047000423008F44AE08E010F5D1F4F842E912C0C
:10048000B12CA12CA50194010E94BA09E62FB90153
:10049000CA01EA30F4F4E05DD801EE938D01232B1C
:1004A000242B252B79F790E080E0109719F0CD01EF
:1004B0000E941A02A1960FB6F894DEBF0FBECDBF00
:1004C000DF91CF911F910F91BF90AF909F908F9030
:1004D0000895E95CE1CFCF92DF92EF92FF92CF9344
:1004E000DF936B017C016DE285E491E00E942701BE
:1004F000EC0166277727CB016C197D098E099F09CE
:100500004AE00E9427028C0F9D1FDF91CF91FF9040
:10051000EF90DF90CF9008954F925F926F927F920D
:100520008F929F92AF92BF92CF92DF92EF92FF9203
:100530006B017C01AC019B010E94290C8823C1F056
:1005400080E291E00E941A027C018CE291E00E941C
:100550001A028E0D9F1DFF90EF90DF90CF90BF90FD
:10056000AF909F908F907F906F905F904F90089585
:1005700046015701E894B7F82FEF3FEF4FE75FE7E9
:10058000C501B4010E94290C81110DC02FEF3FEF6E
:100590004FE75FE7C501B4010E94580A18161CF422
:1005A00084E291E0CFCF2FEF3FEF4FE75FE4C70149
:1005B000B6010E94B70B18161CF488E291E0C2CF76
:1005C0002FEF3FEF4FE75FECC701B6010E94580ADB
:1005D00087FDF3CF20E030E0A901C701B6010E94FA
:1005E000580AB12CA12C87FF0AC06DE285E491E086
:1005F0000E9427015C01F7FAF094F7F8F0942AE0E2
:1006000037ED43EA5BE3C701B6010E94EC092B0119
:100610003C010E94D60A6B017C010E94050B9B01E4
:10062000AC01C301B2010E94EB092B013C014AE07D
:10063000C701B6010E9427027C01EA0CFB1C6EE296
:1006400085E491E00E942701E80EF91E20E030E0E9
:1006500040E251E4C301B2010E94BC0B2B013C01FA
:100660000E94D60A4B01B12CA12C4AE0C501B4016D
:100670000E942702E80EF91EC501B4010E94050B75
:100680009B01AC01C301B2010E94EB0920E030E004
:1006900040E251E40E94BC0B0E94D60A90E080E048
:1006A0004AE00E942702E80EF91E4FCFCF93DF9356
:1006B000BC01990F880B990B97FF0CC00E946B022D
:1006C000EC018CE291E00E941A028C0F9D1FDF91D9
:1006D000CF9108954AE00E942702F2CF1F920F9215
:1006E0000FB60F9211242F933F934F935F936F9305
:1006F0007F938F939F93AF93BF93EF93FF9385E483
:1007000091E00E940501FF91EF91BF91AF919F9100
:100710008F917F916F915F914F913F912F910F90AA
:100720000FBE0F901F9018951F920F920FB60F9249
:1007300011242F938F939F93EF93FF93E091550193
:10074000F09156018081E0915B01F0915C0182FDA6
:100750001BC0908180915E018F5F8F7320915F013C
:10076000821741F0E0915E01F0E0EB5BFE4F958F68
:1007700080935E01FF91EF919F918F912F910F9048
:100780000FBE0F901F9018958081F4CF1F920F928B
:100790000FB60F9211242F933F938F939F93AF9394
:1007A000BF938091350190913601A0913701B091AE
:1007B00038013091300123E0230F2D3758F5019691
:1007C000A11DB11D20933001809335019093360116
:1007D000A0933701B093380180913101909132019B
:1007E000A0913301B09134010196A11DB11D8093F8
:1007F000310190933201A0933301B0933401BF9142
:10080000AF919F918F913F912F910F900FBE0F90BD
:100810001F90189526E8230F0296A11DB11DD2CF77
:100820001F920F920FB60F9211242F923F924F9268
:100830005F926F927F928F929F92AF92BF92CF9270
:10084000DF92EF92FF920F931F932F933F934F935B
:100850005F936F937F938F939F93AF93BF93EF9328
:10086000FF93CF93DF9300D000D0CDB7DEB7F894DD
:100870002091E2013091E3013A832983F12CE12CAC
:10088000D12CC12CA981BA8111968C9111978C150C
:100890001D04C1F0BCF01296ED91FC91EE0DFF1D10
:1008A000FC83EB8380810E94E001AB81BC811996BF
:1008B0009C938E931897BFEFCB1ADB0AECE3EE0EF6
:1008C000F11CE0CF312C212C10E000E080E6882ED6
:1008D0008AEE982EA12CB12CA981BA8111968C9107
:1008E00011978017110609F00CF4F7C11296ED91DB
:1008F000FC91E20DF31DFC83EB8340A851A862A894
:1009000073A8808D918DA28DB38D480E591E6A1EDD
:100910007B1E40AA51AA62AA73AA84899589A689D6
:10092000B7897201E81AF90A868597850C97978727
:1009300086878685978597FDDCC086859785873F66
:1009400099400CF0D9C0AB81BC811E968D919C91D1
:10095000EB81FC819787868780859185C0ACD1AC7F
:100960008C159D05CCF48285938565E070E00E942E
:10097000420CCB01880F991F680F791F6E157F05F8
:100980005CF42085318586A997A92817390724F4B6
:100990008085918597AB86ABAB81BC8118968D9194
:1009A0009C911997C816D9069CF418962D913C91E4
:1009B0001997D4968D919C91D5978217930744F4FB
:1009C00018968D919C911997D5969C938E93D49758
:1009D000BBEFEB16F1040CF4C5C0EB81FC81808504
:1009E0009185C816D9060CF0BDC084858111BAC0A6
:1009F0008285938565E070E00E94420CCB01880FF0
:100A0000991F680F791F6E157F050CF0ABC021E0B0
:100A1000248784899589A689B789F201E81BF90B97
:100A2000AB81BC811B96FC93EE931A97FD01448A1F
:100A3000558A668A778A83AD882371F013AE7C96D7
:100A4000CD01C096AB81BC811A962D913C9121932A
:100A500031938E179F07B1F7EB81FC8182AD88231C
:100A600009F44DC012AE21E023AFAB81BC811296D8
:100A70008D919C91139797FD08C01C962C9161E075
:100A8000211101C060E00E949401EB81FC8124816E
:100A9000358137FDFDC0868597856AE070E00E944C
:100AA000420CA9015527FA01E057FF4FF490FA01D3
:100AB000E458FF4F8491882399F090E0880F991FA4
:100AC000FC01E859FF4FA591B491FC01EE58FF4F8E
:100AD000859194918FB7F894EC91FE2AFC928FBF88
:100AE0006115710509F0ACC060E0822F0E9494018D
:100AF000CFC090E080E02CCF86EF99E029CFEB814A
:100B0000FC817C964B815C81425D5F4F30E020E050
:100B10008281938181939193280F391F4E175F072C
:100B2000B9F7AB81BC811A968D919C911B979F96CA
:100B30009C938E939E97820F931F6AE070E00E94B1
:100B40002E0C9B0150E040E0C501B4010E948809D1
:100B5000EB81FC813783268321E0258786EF99E0AE
:100B600097878687AB81BC8118968D919C91199748
:100B70008C159D053CF51C968C911C97882311F1D2
:100B80001C961C921C97D6964D915C91D797D49643
:100B90002D913C91D597241B350B53963C932E9366
:100BA000529752968D919C9197FD019695958795B8
:100BB000840F951FEB81FC8191AF80AF95AB84AB27
:100BC00097AB86ABF5ECEF16F9E0FF060CF44DCFD2
:100BD000AB81BC8150968D919C915197D9969C93F5
:100BE0008E93D897E0E0F2E0D596FC93EE93D497FD
:100BF000D796FC93EE93D69754964D925D926D9254
:100C00007C925797E1E0DA96EC93DA97DB961C92A8
:100C1000DB971D961C921D9717961C921E92169795
:100C200028E532E01B963C932E931A971C961C9253
:100C30001C9784E690E053969C938E93529715CF21
:100C40006F3F710511F461E050CFFA01EC55FF4F91
:100C5000E491E33041F140F4E130B1F0E230F1F001
:100C60006038710584F740CFE73039F1E83069F139
:100C7000E430B1F7809180008062809380007093AF
:100C80008B0060938A0004C084B5806884BD67BD12
:100C90000F5F1F4F9CE3290E311C1ECE84B580626E
:100CA00084BD68BDF5CF809180008068809380000E
:100CB0007093890060938800EBCF8091B0008068CA
:100CC0008093B0006093B300E3CF8091B000806266
:100CD0008093B0006093B400DBCF81E0A981BA813A
:100CE00018968C9378940F900F900F900F90DF913F
:100CF000CF91FF91EF91BF91AF919F918F917F9194
:100D00006F915F914F913F912F911F910F91FF90A4
:100D1000EF90DF90CF90BF90AF909F908F907F909B
:100D20006F905F904F903F902F900F900FBE0F905D
:100D30001F901895109248011092470188EE93E099
:100D4000A0E0B0E08093490190934A01A0934B0149
:100D5000B0934C0182E191E090934601809345016C
:100D600085EC90E0909352018093510184EC90E0E7
:100D7000909354018093530180EC90E0909356013E
:100D80008093550181EC90E0909358018093570136
:100D900082EC90E090935A018093590186EC90E0A8
:100DA00090935C0180935B0110925E0110925F0151
:100DB00010926001109261011092EE011092ED010B
:100DC00082E090E09093F0018093EF0184EE91E057
:100DD0009093E3018093E20181E08093E5018CE34D
:100DE00090E00E945C0CFC018EE090E09183808397
:100DF0008FEF9FEF938382839583848382E090E0DB
:100E0000A0E0B0E0808F918FA28FB38FDF015C965E
:100E1000CF01C0961D921D928A179B07D9F71586A0
:100E2000178216828EEE92E093878287148610AA2C
:100E300011AA12AA13AA148A158A168A178A80E0A0
:100E400092E095AB84AB97AB86AB86E292E0918B58
:100E5000808B91AF80AF84E690E0938B828B81E0B2
:100E600082AF13AE17861686F093E701E093E60192
:100E70000895789484B5826084BD84B5816084BD12
:100E800085B5826085BD85B5816085BD80916E0028
:100E9000816080936E001092810080918100826059
:100EA0008093810080918100816080938100809196
:100EB00080008160809380008091B1008460809385
:100EC000B1008091B00081608093B00080917A0081
:100ED000846080937A0080917A00826080937A00A7
:100EE00080917A00816080937A0080917A00806896
:100EF00080937A001092C100E0915501F091560163
:100F000082E08083E0915101F09152011082E091E2
:100F10005301F09154018FEC808310925D01E091B8
:100F20005901F0915A0186E08083E0915701F091D8
:100F30005801808180618083E0915701F0915801D0
:100F4000808188608083E0915701F0915801808111
:100F500080688083E0915701F091580180818F7DF6
:100F60008083E091E601F091E701118210828FE029
:100F700090E093838283F89480EE91E0918B808B54
:100F800091AF80AF789494E1492E512C612C712C53
:100F9000C0E0D0E0E091E601F091E701E680F78063
:100FA0008EE00E94E0010E945603E091E601F0917C
:100FB000E701F894858515867894882309F4F2C0B2
:100FC000C7010E9456036091430170914401072EAE
:100FD000000C880B990B0E94070B6B017C0120E031
:100FE00030E040E950E40E94BC0B0E94CF0A072E7B
:100FF000000C880B990B0E94070B20E030E04AE7B9
:1010000054E40E945D0A20E030E041E655E40E948D
:10101000BC0B4B015C016091410170914201072EB4
:10102000000C880B990B0E94070B9B01AC01C501BA
:10103000B4010E945D0A60933D0170933E0180936C
:101040003F019093400120E030E040E451E4C701CB
:10105000B6010E945D0A6093390170933A01809352
:101060003B0190933C012FB7F8946091350170914A
:10107000360180913701909138012FBF28EE33E07F
:1010800040E050E00E94BA09690130934201209388
:101090004101809143019091440101969093440154
:1010A000809343018EE00E94E0015C01B601DD0CFB
:1010B000880B990B0E94070B2AE037ED43E25CE3B3
:1010C0000E94BC0B9B01AC01609100017091010179
:1010D00080910201909103010E94EB09609300014D
:1010E00070930101809302019093030160913D018F
:1010F00070913E0180913F01909140010E948C02CD
:101100006091390170913A0180913B0190913C01CD
:101110000E948C02B501BB0C880B990B0E94070B37
:101120002AE038E240EA5BE30E94BC0B0E948C029A
:101130006091000170910101809102019091030181
:101140000E948C020E94F5014B015C0188E5C82ECB
:1011500082E0D82EE12CF12C0E94F5016819790962
:101160008A099B09683E734081059105A8F321E037
:10117000C21AD108E108F10888EE880E83E0981EB3
:10118000A11CB11CC114D104E104F10429F720977A
:1011900009F400CF0E94F100882309F4FBCE0E94DD
:1011A0000000F8CE0E943009A30192010E94880934
:1011B000665A7F4F8F4F9F4F4AE00E9427028CE272
:1011C00091E00E941A02FFCE8F929F92AF92BF923F
:1011D000CF92DF92EF92FF92CF93DF93EC01688181
:1011E00079818A819B81611571058105910521F4C1
:1011F00064E279ED8BE597E02DE133EF41E050E0DB
:101200000E94880949015A019B01AC01A7EAB1E497
:101210000E94A7096B017C01ACEEB4EFA50194011B
:101220000E94B509C60ED71EE81EF91EF7FE06C0BD
:1012300081E0C81AD108E10880E8F80AC882D9829A
:10124000EA82FB82C701B6019F77DF91CF91FF90C1
:10125000EF90DF90CF90BF90AF909F908F900895C8
:101260008F929F92AF92BF92CF92DF92EF92FF92B6
:101270006091040170910501809106019091070130
:10128000611571058105910521F464E279ED8BE525
:1012900097E02DE133EF41E050E00E9488094901D9
:1012A0005A019B01AC01A7EAB1E40E94A7096B01B6
:1012B0007C01ACEEB4EFA50194010E94B509C60E05
:1012C000D71EE81EF91EF7FE06C081E0C81AD10835
:1012D000E10880E8F80AC0920401D0920501E0928A
:1012E0000601F0920701C701B6019F77FF90EF90CA
:1012F000DF90CF90BF90AF909F908F9008956093B4
:1013000004017093050180930601909307010895ED
:10131000052E97FB1EF400940E949F0957FD07D0ED
:101320000E94BA0907FC03D04EF40C949F09509513
:101330004095309521953F4F4F4F5F4F08959095C1
:101340008095709561957F4F8F4F9F4F08950E94B4
:10135000DC09A59F900DB49F900DA49F800D911D59
:1013600011240895B7FF0C94A7090E94A709821BB6
:10137000930B0895A1E21A2EAA1BBB1BFD010DC001
:10138000AA1FBB1FEE1FFF1FA217B307E407F50735
:1013900020F0A21BB30BE40BF50B661F771F881F11
:1013A000991F1A9469F760957095809590959B01A7
:1013B000AC01BD01CF010895A29FB001B39FC00150
:1013C000A39F700D811D1124911DB29F700D811D71
:1013D0001124911D08955058BB27AA270E94030A83
:1013E0000C947D0B0E946F0B38F00E94760B20F05E
:1013F00039F49F3F19F426F40C946C0B0EF4E0952D
:10140000E7FB0C94660BE92F0E948E0B58F3BA177A
:10141000620773078407950720F079F4A6F50C940A
:10142000B00B0EF4E0950B2EBA2FA02D0B01B901D5
:1014300090010C01CA01A0011124FF27591B99F04A
:10144000593F50F4503E68F11A16F040A22F232F56
:10145000342F4427585FF3CF469537952795A795A6
:10146000F0405395C9F77EF41F16BA0B620B730B4D
:10147000840BBAF09150A1F0FF0FBB1F661F771FBE
:10148000881FC2F70EC0BA0F621F731F841F48F473
:10149000879577956795B795F7959E3F08F0B0CFFC
:1014A0009395880F08F09927EE0F979587950895E3
:1014B0000E94420B08F481E008950E94710A0C9486
:1014C0007D0B0E94760B58F00E946F0B40F029F4C0
:1014D0005F3F29F00C94660B51110C94B10B0C94E6
:1014E0006C0B0E948E0B68F39923B1F3552391F393
:1014F000951B550BBB27AA2762177307840738F083
:101500009F5F5F4F220F331F441FAA1FA9F335D0DF
:101510000E2E3AF0E0E832D091505040E695001C93
:10152000CAF72BD0FE2F29D0660F771F881FBB1F4D
:10153000261737074807AB07B0E809F0BB0B802D2B
:10154000BF01FF2793585F4F3AF09E3F510578F057
:101550000C94660B0C94B10B5F3FE4F3983ED4F30C
:10156000869577956795B795F7959F5FC9F7880F2B
:10157000911D9695879597F90895E1E0660F771F7D
:10158000881FBB1F621773078407BA0720F0621B0E
:10159000730B840BBA0BEE1F88F7E09508950E9439
:1015A000D60A6894B1110C94B10B08950E94960B61
:1015B00088F09F5798F0B92F9927B751B0F0E1F014
:1015C000660F771F881F991F1AF0BA95C9F714C0C4
:1015D000B13091F00E94B00BB1E008950C94B00BC3
:1015E000672F782F8827B85F39F0B93FCCF38695FD
:1015F00077956795B395D9F73EF49095809570955A
:1016000061957F4F8F4F9F4F0895E89409C097FBD6
:101610003EF490958095709561957F4F8F4F9F4FC9
:101620009923A9F0F92F96E9BB279395F69587950D
:1016300077956795B795F111F8CFFAF4BB0F11F4D0
:1016400060FF1BC06F5F7F4F8F4F9F4F16C0882377
:1016500011F096E911C0772321F09EE8872F762FAD
:1016600005C0662371F096E8862F70E060E02AF0EE
:101670009A95660F771F881FDAF7880F96958795DA
:1016800097F90895990F0008550FAA0BE0E8FEEFAF
:1016900016161706E807F907C0F012161306E40736
:1016A000F50798F0621B730B840B950B39F40A262F
:1016B00061F0232B242B252B21F408950A2609F40D
:1016C000A140A6958FEF811D811D089597F99F6711
:1016D00080E870E060E008959FEF80EC08950024BA
:1016E0000A941616170618060906089500240A9487
:1016F00012161306140605060895092E0394000C0D
:1017000011F4882352F0BB0F40F4BF2B11F460FF9B
:1017100004C06F5F7F4F8F4F9F4F089557FD9058C4
:10172000440F551F59F05F3F71F04795880F97FBA5
:10173000991F61F09F3F79F087950895121613065F
:101740001406551FF2CF4695F1DF08C0161617068E
:101750001806991FF1CF86957105610508940895C3
:10176000E894BB2766277727CB0197F908950E9455
:10177000420B08F48FEF08950E94CF0B0C947D0B61
:101780000E946F0B38F00E94760B20F0952311F029
:101790000C94660B0C946C0B11240C94B10B0E94EE
:1017A0008E0B70F3959FC1F3950F50E0551F629F0C
:1017B000F001729FBB27F00DB11D639FAA27F00DAA
:1017C000B11DAA1F649F6627B00DA11D661F829FD1
:1017D0002227B00DA11D621F739FB00DA11D621FB6
:1017E000839FA00D611D221F749F3327A00D611DD3
:1017F000231F849F600D211D822F762F6A2F1124B5
:101800009F5750409AF0F1F088234AF0EE0FFF1FE7
:10181000BB1F661F771F881F91505040A9F79E3F3E
:10182000510580F00C94660B0C94B10B5F3FE4F310
:10183000983ED4F3869577956795B795F795E79594
:101840009F5FC1F7FE2B880F911D9695879597F99D
:1018500008950E94420B880B990B0895AA1BBB1B8D
:1018600051E107C0AA1FBB1FA617B70710F0A61BA0
:10187000B70B881F991F5A95A9F780959095BC01C1
:10188000CD01089597FB072E16F4009407D077FD3D
:1018900009D00E942E0C07FC05D03EF4909581954E
:1018A0009F4F0895709561957F4F0895EE0FFF1F2C
:1018B0000590F491E02D09940F931F93CF93DF933C
:1018C0008230910510F482E090E0E091F301F09114
:1018D000F40130E020E0B0E0A0E0309799F4211569
:1018E000310509F44AC0281B390B24303105D8F5DD
:1018F0008A819B816115710589F1FB019383828344
:10190000FE0111C04081518102811381481759079E
:10191000E0F04817590799F4109761F012960C936C
:10192000129713961C933296CF01DF91CF911F919E
:101930000F9108950093F3011093F401F4CF211552
:10194000310551F04217530738F0A901DB019A0124
:10195000BD01DF01F801C1CFEF01F9CF9093F40190
:101960008093F301CDCFFE01E20FF31F819391939A
:101970002250310939832883D7CF2091F10130914A
:10198000F201232B41F420910A0130910B01309395
:10199000F2012093F10120910801309109012115F4
:1019A000310541F42DB73EB740910C0150910D0126
:1019B000241B350BE091F101F091F201E217F307DE
:1019C000A0F42E1B3F0B2817390778F0AC014E5FAF
:1019D0005F4F2417350748F04E0F5F1F5093F201F9
:1019E0004093F101819391939FCFF0E0E0E09CCF91
:1019F000CF93DF930097E9F0FC01329713821282B4
:101A0000A091F301B091F401ED0130E020E01097D6
:101A1000A1F420813181820F931F2091F101309137
:101A2000F2012817390709F061C0F093F201E09341
:101A3000F101DF91CF910895EA01CE17DF07E8F5B4
:101A40004A815B819E0141155105B1F7E901FB8394
:101A5000EA8349915991C40FD51FEC17FD0761F432
:101A6000808191810296840F951FE9019983888373
:101A7000828193819B838A83F0E0E0E012968D91CE
:101A80009C9113970097B9F52D913C911197CD0139
:101A90000296820F931F2091F1013091F2012817D5
:101AA000390739F6309751F51092F4011092F3018D
:101AB000B093F201A093F101BCCFD383C2834081E4
:101AC0005181840F951FC817D90761F44E5F5F4F8E
:101AD00088819981480F591F518340838A819B8156
:101AE000938382832115310509F0B0CFF093F4017F
:101AF000E093F3019ECFFD01DC01C0CF138212827F
:101B0000D7CFF894FFCF0000C842010000000000CA
:101B1000F50180000000000027018700B400740177
:101B2000E500C300D7006E616E00696E66006F76D7
:061B300066000D0A000032
:107E0000112484B714BE81FFF0D085E080938100F7
:107E100082E08093C00088E18093C10086E0809377
:107E2000C20080E18093C4008EE0C9D0259A86E02C
:107E300020E33CEF91E0309385002093840096BBD3
:107E4000B09BFECF1D9AA8958150A9F7CC24DD24C4
:107E500088248394B5E0AB2EA1E19A2EF3E0BF2EE7
:107E6000A2D0813461F49FD0082FAFD0023811F036
:107E7000013811F484E001C083E08DD089C08234E0
:107E800011F484E103C0853419F485E0A6D080C0E4
:107E9000853579F488D0E82EFF2485D0082F10E0AE
:107EA000102F00270E291F29000F111F8ED06801E7
:107EB0006FC0863521F484E090D080E0DECF843638
:107EC00009F040C070D06FD0082F6DD080E0C81688
:107ED00080E7D80618F4F601B7BEE895C0E0D1E017
:107EE00062D089930C17E1F7F0E0CF16F0E7DF06D8
:107EF00018F0F601B7BEE89568D007B600FCFDCFD4
:107F0000A601A0E0B1E02C9130E011968C91119780
:107F100090E0982F8827822B932B1296FA010C0160
:107F200087BEE89511244E5F5F4FF1E0A038BF0790
:107F300051F7F601A7BEE89507B600FCFDCF97BE46
:107F4000E89526C08437B1F42ED02DD0F82E2BD052
:107F50003CD0F601EF2C8F010F5F1F4F84911BD097
:107F6000EA94F801C1F70894C11CD11CFA94CF0C13
:107F7000D11C0EC0853739F428D08EE10CD085E9AC
:107F80000AD08FE07ACF813511F488E018D01DD067
:107F900080E101D065CF982F8091C00085FFFCCF94
:107FA0009093C60008958091C00087FFFCCF809118
:107FB000C00084FD01C0A8958091C6000895E0E648
:107FC000F0E098E1908380830895EDDF803219F02E
:107FD00088E0F5DFFFCF84E1DECF1F93182FE3DFCA
:107FE0001150E9F7F2DF1F91089580E0E8DFEE27F6
:047FF000FF270994CA
:027FFE00040479
:00000001FF
